:0200000000DD21
:0200010002FFFC
:020002000224D6
:020003000017E4
:020004000144B5
:020005000244B3
:02000600008474
:020007000110E6
:0200080002D123
:0200090003FBF7
:02000A00005F95
:02000B0000C330
:02000C0001A849
:02000D00036787
:02000E0002EE00
:02000F0003E20A
:02001000002EC0
:0200110000905D
:0200120003EAFF
:0200130003EAFE
:0200140003EAFD
:02001500006B7E
:0200160002697D
:0200170000A83F
:0200180002A83C
:0200190000FFE6
:02001A0003EAF7
:02001B0003EAF6
:02001C0003EAF5
:02001D000030B1
:02001E0000CC14
:02001F0000AA35
:0200200001A835
:0200210000439A
:0200220001D308
:0200230000CC0F
:020024000030AA
:020025000000D9
:02002600008355
:02002700014492
:02002800004492
:0200290000BB1A
:02002A0002448E
:02002B00009F34
:02002C0002844C
:02002D00030BC3
:02002E00002EA2
:02002F0000903F
:020030000328A3
:02003100036F5B
:0200320003EADF
:0200330003EADE
:0200340003EADD
:02003500004B7E
:0200360002675F
:0200370003A81C
:02003800017154
:0200390003774B
:02003A0003CBF6
:02003B0002CEF3
:02003C0000C4FE
:02003D0001DBE5
:02003E00012897
:02003F0000348B
:0200400002CEEE
:02004100037545
:02004200012E8D
:0200430002FABF
:020044000116A3
:02004500036A4C
:02004600038332
:0200470001BAFC
:02004800039B18
:0200490003367C
:02004A00034C65
:02004B00039B15
:02004C00001C96
:02004D0001EAC6
:02004E000002AE
:02004F0001337B
:0200500002C4E8
:0200510002D6D5
:0200520003A603
:02005300011496
:02005400021F89
:02005500017D2B
:0200560003772E
:0200570000D2D5
:02005800017233
:0200590000DACB
:02005A00038A17
:02005B0001772B
:02005C0000CED4
:02005D0000346D
:02005E00018E11
:02005F00030C90
:02006000012A73
:02006100018A12
:0200620001BAE1
:0200630001A3F7
:0200640000AAF0
:02006500017A1E
:02006600015F38
:02006700014C4A
:0200680003AAE9
:02006900011480
:02006A00010B88
:02006B00032A66
:02006C00002A68
:02006D0003DDB1
:02006E00010A85
:02006F0002CEBF
:02007000032C5F
:02007100022764
:0200720003B2D7
:0200730001EB9F
:0200740002D1B7
:020075000090F9
:02007600011473
:0200770003DBA9
:0200780003B2D1
:0200790000FA8B
:02007A00018EF5
:02007B0001BAC8
:02007C0001FF82
:02007D0000DAA7
:02007E0000AAD6
:02007F00034C30
:02008000011667
:02008100016A12
:02008200027EFC
:02008300013B3F
:02008400027602
:02008500020374
:0200860000CAAE
:0200870003DD97
:0200880002D69E
:02008900019ED6
:02008A00032C45
:02008B00024F22
:02008C00008EE4
:02008D0001EE82
:02008E00004C24
:02008F0001125C
:02009000003C32
:0200910001A2CA
:02009200023F2B
:0200930003AEBA
:0200940000EC7E
:0200950003E77F
:0200960000CA9E
:020097000184E2
:0200980001EB7A
:0200990000FE67
:02009A0001A8BB
:02009B00002E35
:02009C0003FA65
:02009D0003FA64
:02009E0001FA65
:02009F0001FA64
:0200A000004A14
:0200A100028FCC
:0200A20003AEAB
:0200A30003A6B2
:0200A40001A6B3
:0200A500029FB8
:0200A60003AEA7
:0200A70002262F
:0200A800004A0C
:0200A90002FB58
:0200AA00028EC4
:0200AB0003EA66
:0200AC00000E44
:0200AD0002FB54
:0200AE0002A3AB
:0200AF0002F657
:0200B00000D47A
:0200B10002D378
:0200B200037ECB
:0200B30000FE4D
:0200B40001D475
:0200B50002DF68
:0200B60001281F
:0200B70001C482
:0200B80000CE78
:0200B900016ED6
:0200BA0000BE86
:0200BB0001FE44
:0200BC00022E12
:0200BD00003011
:0200BE000090B0
:0200BF000171CD
:0200C0000144F9
:0200C1000377C3
:0200C20002CE6C
:0200C300019E9C
:0200C400022414
:0200C500033FF7
:0200C60001FA3D
:0200C700020431
:0200C8000154E1
:0200C9000337FB
:0200CA0001EA49
:0200CB00031B15
:0200CC0000280A
:0200CD0000141D
:0200CE00031F0E
:0200CF0000240B
:0200D000001C12
:0200D100032CFE
:0200D2000343E6
:0200D300022801
:0200D400021414
:0200D5000333F3
:0200D600010E19
:0200D7000164C2
:0200D80000D056
:0200D9000128FC
:0200DA0003AE73
:0200DB000175AD
:0200DC0001C45D
:0200DD0003DD41
:0200DE0002BD61
:0200DF00022BF2
:0200E00002D646
:0200E100001C01
:0200E20000AC70
:0200E300011703
:0200E400030C0B
:0200E50002EE29
:0200E60002F620
:0200E70003E232
:0200E80003E231
:0200E900008C89
:0200EA00003CD8
:0200EB000362AE
:0200EC0003BF50
:0200ED0000020F
:0200EE0003AB62
:0200EF0003E22A
:0200F000032EDD
:0200F1000030DD
:0200F200010407
:0200F30002D435
:0200F400007397
:0200F50001BF49
:0200F60000FE0A
:0200F70002A461
:0200F800030FF4
:0200F900019470
:0200FA0003F30E
:0200FB00001CE7
:0200FC0002926E
:0200FD0001E917
:0200FE0002A856
:0200FF00036F8D
:0201000003CF2B
:02010100032ECB
:0201020000A15A
:0201030001A851
:0201040000A158
:0201050001A84F
:020106000254A1
:020107000027CF
:0201080003AE44
:0201090001549F
:02010A00004BA8
:02010B0000DE14
:02010C00029956
:02010D000128C7
:02010E00029558
:02010F0002618B
:02011000009558
:0201110001A843
:02011200029950
:02011300029454
:02011400036B7B
:0201150002EEF8
:0201160003E202
:020117000126BF
:0201180003A63C
:02011900016A79
:02011A0002924F
:02011B0001BA27
:02011C0000677A
:02011D0002D20C
:02011E0001EAF4
:02011F00007767
:0201200002CE0D
:02012100028E4C
:020122000128B2
:02012300022EAA
:020124000107D1
:02012500022EA8
:02012600010CCA
:02012700037B58
:020128000128AC
:0201290003AE23
:02012A0001A230
:02012B0000B71B
:02012C0000AE23
:02012D00018E41
:02012E00008A45
:02012F00032F9C
:02013000018E3E
:02013100005478
:02013200009734
:02013300029434
:0201340001B711
:02013500015473
:02013600005770
:0201370000FEC8
:0201380003BE04
:0201390000378D
:02013A0002922F
:02013B00037E41
:02013C0000EBD6
:02013D0001FEC1
:02013E0003328A
:02013F0001D2EB
:02014000032E8C
:02014100012E8D
:02014200035266
:0201430000EFCB
:0201440001A810
:0201450002CEE8
:0201460003B202
:02014700032E85
:020148000112A2
:0201490001288B
:02014A0003FEB2
:02014B0003FEB1
:02014C00008F22
:02014D0000CEE2
:02014E00002A85
:02014F0002D6D6
:0201500002C9E2
:02015100016249
:0201520001A802
:0201530003AEF9
:02015400010C9C
:02015500029115
:02015600018C1A
:02015700026D37
:02015800020C97
:02015900026D35
:02015A00008C17
:02015B00021888
:02015C00028C13
:02015D00026D31
:02015E00023964
:02015F00026D2F
:02016000033169
:02016100010E8D
:02016200026D2C
:02016300008E0C
:02016400032D69
:02016500033164
:0201660002AEE7
:020167000299FB
:0201680002543F
:0201690001B3E0
:02016A0000FE95
:02016B0002612F
:02016C0000642D
:02016D0000CEC2
:02016E0001622C
:02016F0001EAA3
:02017000005439
:020171000297F3
:020172000299F0
:02017300033156
:0201740002AED9
:020175000295F1
:02017600033153
:0201770002AED6
:0201780002AED5
:0201790002552D
:02017A0002AED3
:02017B0003ADD2
:02017C0003314D
:02017D00028CF2
:02017E0002710C
:02017F00023943
:02018000020C6F
:02018100027505
:02018200008CEF
:02018300021860
:02018400018CEC
:02018500027105
:02018600010C6A
:02018700027103
:02018800027102
:02018900032E43
:02018A00024E23
:02018B00034C23
:02018C00015818
:02018D0003EF7E
:02018E00018CE2
:02018F00021854
:020190000198D4
:02019100015813
:020192000098D3
:02019300011851
:0201940002580F
:02019500005414
:02019600036BF9
:02019700003036
:0201980002EE75
:0201990003E27F
:02019A00001053
:02019B00011051
:02019C00010E52
:02019D000296C8
:02019E00022E2F
:02019F000287D5
:0201A00001FE5E
:0201A100030E4B
:0201A2000283D6
:0201A300038EC9
:0201A400011048
:0201A500011047
:0201A600014A0C
:0201A700011045
:0201A80001E272
:0201A900034E03
:0201AA0002A3AE
:0201AB0003CE81
:0201AC00010E42
:0201AD00001C34
:0201AE000252FB
:0201AF00002C22
:0201B00002A7A4
:0201B10000B795
:0201B20001E268
:0201B300031631
:0201B40002CB7C
:0201B5000396AF
:0201B600011630
:0201B700001C2A
:0201B800002C19
:0201B90002CF73
:0201BA0000B78C
:0201BB00001C26
:0201BC000396A8
:0201BD00036FCE
:0201BE0000102F
:0201BF00017AC3
:0201C000017AC2
:0201C10002EA50
:0201C200035EDA
:0201C300027EBA
:0201C400031B1B
:0201C500011027
:0201C60002062F
:0201C700032B08
:0201C80000FE37
:0201C900032E03
:0201CA00030E22
:0201CB00011021
:0201CC0000CE63
:0201CD0002CC62
:0201CE0001D856
:0201CF00021814
:0201D0000158D4
:0201D10000D854
:0201D2000258D1
:0201D300021810
:0201D4000058D1
:0201D50001988F
:0201D60000D84F
:0201D7000158CD
:0201D800030C16
:0201D9000030F4
:0201DA00001013
:0201DB00038A95
:0201DC00037BA3
:0201DD000162BD
:0201DE0001FE20
:0201DF00002CF2
:0201E00002EF2C
:0201E10003AA6F
:0201E20002EA2F
:0201E3000062B8
:0201E400039B7B
:0201E50002CE48
:0201E600024EC7
:0201E700022AEA
:0201E80000CA4B
:0201E900030C05
:0201EA0002BB56
:0201EB00011001
:0201EC0002927D
:0201ED0002927C
:0201EE00017E90
:0201EF0003B358
:0201F00001D23A
:0201F1000312F7
:0201F2000232D7
:0201F300008E7C
:0201F400037E88
:0201F50003BB4A
:0201F60003B252
:0201F70001A85D
:0201F800001EE7
:0201F9000007FD
:0201FA00010EF4
:0201FB0003B24D
:0201FC000128D8
:0201FD0002926C
:0201FE00017E80
:0201FF00023EBE
:020200000010EC
:02020100033EBA
:0202020003FEF9
:020203000256A1
:020204000112E5
:02020500004BAC
:0202060001A84D
:0202070002995A
:02020800018E65
:020209000214DD
:02020A00010BE6
:02020B0002EE01
:02020C000346A7
:02020D000003EC
:02020E0002CE1E
:02020F00017E6E
:020210000003E9
:0202110001FEEC
:02021200012EBB
:0202130002598E
:02021400036283
:020215000047A0
:020216000332B1
:02021700039E44
:020218000007DD
:0202190001CC16
:02021A0001B52C
:02021B00020CD3
:02021C00027569
:02021D00024C91
:02021E0002716B
:02021F0003F9E1
:02022000028C4E
:02022100027168
:0202220001F5E4
:0202230002CC0B
:02022400027165
:02022500037D57
:02022600027163
:0202270002E5EE
:02022800027161
:0202290003D9F7
:02022A0003AE21
:02022B00014E82
:02022C00001AB6
:02022D0000BF10
:02022E00014E7F
:02022F00032E9C
:02023000001CB0
:02023100010EBC
:02023200006C5E
:0202330000C306
:0202340003AE17
:0202350001BE08
:0202360000E3E3
:0202370000E6DF
:0202380001EAD9
:0202390002CCF5
:02023A000315AA
:02023B0002546B
:02023C00001BA5
:02023D0001546A
:02023E00025369
:02023F0003D9E1
:02024000029D1D
:02024100025366
:0202420003D9DE
:0202430003B105
:0202440002E5D1
:0202450002CCE9
:02024600026D47
:02024700037D35
:02024800028C26
:02024900026D44
:02024A0001F5BC
:02024B00024C63
:02024C00026D41
:02024D0003F9B3
:02024E00020CA0
:02024F00026D3E
:02025000026D3D
:02025100026D3C
:02025200018C1D
:0202530002F2B5
:02025400034C59
:02025500022E77
:0202560003AEF5
:0202570001980C
:02025800023B67
:0202590000940F
:02025A00017B26
:02025B0003EAB4
:02025C00027A24
:02025D00030B91
:02025E00031685
:02025F00016735
:02026000039603
:02026100010E8C
:02026200016A2F
:02026300017325
:0202640002CEC8
:0202650000D2C5
:0202660003AAE9
:0202670001BED6
:0202680001B3E0
:02026900032E62
:02026A00030E81
:02026B0000EEA3
:02026C0002CEC0
:02026D00022E5F
:02026E0000CEC0
:02026F00016626
:020270000094F8
:0202710001DBAF
:02027200011871
:0202730001E6A2
:0202740001E7A0
:020275000198EE
:02027600006C1A
:0202770001D7AD
:02027800024E34
:02027900024E33
:02027A000094EE
:02027B0002532C
:02027C00003050
:02027D0001CCB2
:02027E0000D8A6
:02027F0000D8A5
:02028000001864
:02028100021861
:02028200015821
:02028300001861
:0202840002581E
:0202850003ABC9
:0202860002591B
:0202870003E290
:02028800012E45
:02028900017EF4
:02028A00021B55
:02028B0002D29D
:02028C0003AEBF
:02028D00011658
:02028E0003AEBD
:02028F00037EEC
:02029000022347
:02029100032E3A
:0202920003E285
:02029300033135
:020294000090D8
:0202950002D293
:02029600037EE5
:0202970002570C
:0202980002FE64
:02029900038ED2
:02029A00003032
:02029B000090D1
:02029C0002CE90
:02029D00022E2F
:02029E000283D9
:02029F00038ECC
:0202A000017EDD
:0202A100027FDA
:0202A20003AEA9
:0202A300011642
:0202A40003AEA7
:0202A50001B79F
:0202A60000CC8A
:0202A70001CA8A
:0202A800015EF5
:0202A90002AFA2
:0202AA0000BE94
:0202AB00032628
:0202AC0002EE60
:0202AD00032C20
:0202AE00031734
:0202AF000066E7
:0202B00002DB6F
:0202B1000054F7
:0202B200000347
:0202B3000092B7
:0202B4000366DF
:0202B50001FA4C
:0202B600023212
:0202B70003A69C
:0202B8000090B4
:0202B90002241D
:0202BA000198A9
:0202BB000258E7
:0202BC0000D868
:0202BD000058E7
:0202BE00011825
:0202BF0001D864
:0202C0000058E4
:0202C100039B9D
:0202C20003E651
:0202C3000193A5
:0202C400038EA7
:0202C5000162D4
:0202C600031320
:0202C70002CE65
:0202C800003CF8
:0202C900036CC4
:0202CA00031718
:0202CB0001EA46
:0202CC0002FE30
:0202CD00030C20
:0202CE00002E00
:0202CF000262C9
:0202D000035BCE
:0202D100010E1C
:0202D200016ABF
:0202D300026EB9
:0202D400033FE6
:0202D50000CE59
:0202D600012AFB
:0202D700038E94
:0202D800027EA4
:0202D900031F01
:0202DA0003A679
:0202DB00018E92
:0202DC00002EF2
:0202DD00030C10
:0202DE0001EB32
:0202DF00024CCF
:0202E00000D844
:0202E1000058C3
:0202E200001802
:0202E3000058C1
:0202E40001D83F
:0202E5000258BD
:0202E6000218FC
:0202E7000018FD
:0202E8000158BB
:0202E9000158BA
:0202EA0000D83A
:0202EB00037797
:0202EC0003AE5F
:0202ED00012EE0
:0202EE00018687
:0202EF0002BA51
:0202F000017B90
:0202F10001FA10
:0202F20002CE3A
:0202F30001EA1E
:0202F40003CB3A
:0202F500019F67
:0202F60000CE38
:0202F700030CF6
:0202F80000986C
:0202F90000D82B
:0202FA000018EA
:0202FB00009869
:0202FC000158A7
:0202FD000207F6
:0202FE00014CB1
:0202FF0001FB01
:00000001FF
